:020000040800F2
:10000000E81C0020DD370008B9370008BB370008BE
:10001000BD370008BF370008C137000800000000E6
:10002000000000000000000000000000C3370008CE
:10003000C537000800000000C7370008C9370008AE
:10004000F9370008FD3700080138000805380008B6
:10005000093800080D380008113800081538000864
:10006000193800081D380008213800082538000814
:10007000293800082D3800083138000835380008C4
:10008000393800083D380008413800084538000874
:10009000493800084D380008513800085538000824
:1000A000593800085D3800086138000865380008D4
:1000B000693800086D380008713800087538000884
:1000C000793800087D380008813800088538000834
:1000D000893800088D3800089138000895380008E4
:1000E000993800089D380008A1380008A538000894
:1000F000A9380008AD380008B1380008B538000844
:10010000B9380008BD380008C1380008C5380008F3
:10011000C9380008CD380008D1380008D5380008A3
:10012000D9380008DD380008E1380008E538000853
:10013000E93800080000000000000000ED38000869
:10014000F1380008F5380008F9380008FD380008D3
:100150000139000805390008093900080D3900087F
:100160001139000815390008193900081D3900082F
:10017000213900082539000829390008000000004D
:10018000000000002D390008000000000000000001
:100190003139000800000000000000003539000877
:1001A00000000000000000000000000039390008D5
:1001B0003D3900084139000845390008493900082F
:1001C0004D390008000000000000000000000000A1
:1001D000000000003F400000000000000000300070
:1001E000400030004000000009000BC03D000BC083
:1001F0003D00090018C024407FE02240318000000B
:10020000180024C01B000D803240018003801C4078
:1002100027401C80074000401000600000000000E4
:10022000000000000000000000001F80204040206F
:100230000000402020401F80000000000900060050
:100240001F80060009000000040004003F80040035
:10025000040000000010006000000000000000002A
:10026000040004000400040004000000000000403A
:100270000000000000000000002001C0060038005F
:10028000400000001F802040204020401F800000D0
:10029000000010403FC000400000000018C0214096
:1002A0002240244018400000108020402440244078
:1002B0001B80000002000D0011003FC00140000043
:1002C0003C80244024402440238000001F802440A0
:1002D00024403440038000003000200027C0380054
:1002E000200000001B802440244024401B8000008C
:1002F0001C0022C0224022401F800000000000009D
:100300000840000000000000000000000460000041
:1003100000000000000004000A001100208040409E
:100320000900090009000900090000000000404020
:10033000208011000A00040018002000234024003F
:10034000180000001F802040274029401F40000067
:10035000004007C039000F0001C0004020403FC0EE
:10036000244024401B8000001F802040204020406B
:100370003080000020403FC0204020401F8000000F
:1003800020403FC024402E4030C0000020403FC0ED
:1003900024402E00300000000F001080204022403A
:1003A0003380020020403FC0040004003FC02040D2
:1003B000204020403FC0204020400000006020201E
:1003C00020203FC02000200020403FC024400B00E0
:1003D00030C0204020403FC020400040004000C0CE
:1003E0003FC03C0003C03C003FC0000020403FC075
:1003F0000C4023003FC020001F80204020402040B0
:100400001F80000020403FC024402400180000004E
:100410001F802140214020E01FA0000020403FC05D
:100420002440260019C0004018C024402440224027
:1004300031800000300020403FC0204030000000EC
:1004400020003F80004000403F80200020003E0010
:1004500001C0070038002000380007C03C0007C07A
:1004600038000000204039C0060039C0204000009C
:100470002000384007C0384020000000304021C034
:100480002640384020C00000000000007FE04020EF
:1004900040200000000070000C00038000400000BD
:1004A0000000402040207FE000000000000020000D
:1004B000400020000000000000100010001000109C
:1004C00000100010000000004000000000000000CC
:1004D000000002800540054003C0004020003FC0EE
:1004E00004400440038000000000038004400440F6
:1004F0000640000000000380044024403FC000404C
:100500000000038005400540034000000000044057
:100510001FC0244024402000000002E00550055088
:100520000650042020403FC00440040003C00040A7
:100530000000044027C00040000000000010001030
:10054000041027E00000000020403FC001400700E9
:1005500004C00440204020403FC000400040000054
:1005600007C0040007C0040003C00000044007C027
:100570000440040003C00040000003800440044025
:1005800003800000041007F00450044003800000C2
:10059000000003800440045007F00010044007C02E
:1005A0000240040004000000000006400540054031
:1005B00004C00000000004001F8004400040000050
:1005C000040007800040044007C00040040007000A
:1005D00004C0018006000400060001C0070001C03D
:1005E00006000000044006C0010006C004400000F0
:1005F0000410071004E0018006000400000004401D
:1006000005C00640044000000000000004007BE03C
:1006100040200000000000000000FFF0000000008B
:10062000000040207BE0040000000000400080004B
:1006300040002000200040000000000000000000FA
:1006400000000000000000000000000000001FCCBF
:10065000000C0000000000000000080030006000F6
:100660000800300060000000022003FC1E20022071
:1006700003FC1E200220000000000E1811043FFFA2
:1006800010840C78000000000F0010840F3800C0A8
:10069000077818840078000000780F8410C41124B3
:1006A0000E9800E400840008080068007000000054
:1006B000000000000000000000000000000007E053
:1006C00018182004400200000000400220041818FE
:1006D00007E00000000000000240024001800FF02F
:1006E00001800240024000000080008000800FF87E
:1006F00000800080008000000001000D000E00005E
:100700000000000000000000000000800080008069
:1007100000800080008000800000000C000C0000C1
:10072000000000000000000000000006001800604B
:100730000180060018002000000007F008081004DF
:100740001004080807F000000000080408041FFC5B
:10075000000400040000000000000E0C101410241F
:10076000104411840E0C000000000C181004110439
:10077000110412880C700000000000E00320042423
:1007800008241FFC0024000000001F98108411049E
:100790001104108810700000000007F00888110490
:1007A000110418880070000000001C00100010FCEC
:1007B00013001C001000000000000E3811441084CB
:1007C000108411440E38000000000700088C10440B
:1007D0001044088807F00000000000000000030C2F
:1007E000030C0000000000000000000000010106F2
:1007F0000000000000000000000000800140022016
:100800000410080810040000022002200220022028
:10081000022002200220000000001004080804103A
:10082000022001400080000000000E001200100CA9
:10083000106C10800F00000003E00C1813E4142467
:1008400017C4082807D000000004003C03C41C4063
:10085000074000E4001C000410041FFC11041104F4
:1008600011040E880070000003E00C18100410043E
:10087000100410081C10000010041FFC10041004C9
:100880001004080807F0000010041FFC11041104F4
:1008900017C410040818000010041FFC11041100F4
:1008A00017C010000800000003E00C18100410042A
:1008B00010441C780040000010041FFC10840080CD
:1008C000008010841FFC10040000100410041FFCA2
:1008D00010041004000000000003000110011001CA
:1008E0001FFE10001000000010041FFC1104038004
:1008F0001464181C1004000010041FFC10040004F1
:1009000000040004000C000010041FFC1F0000FC89
:100910001F001FFC1004000010041FFC0C04030047
:1009200000E010181FFC100007F008081004100465
:100930001004080807F0000010041FFC1084108049
:10094000108010800F00000007F0081810241024F9
:10095000101C080A07F2000010041FFC110411000B
:1009600011C011300E0C000400000E1C1104108484
:10097000108410441C3800001800100010041FFCE4
:10098000100410001800000010001FF810040004EC
:10099000000410041FF8100010001E0011E0001CDD
:1009A000007013801C0010001FC0103C00E01F00EE
:1009B00000E0103C1FC000001004180C163401C0E9
:1009C00001C01634180C100410001C00130400FCA5
:1009D00013041C00100000000804101C1064108494
:1009E00013041C04101800000000000000007FFE2B
:1009F0004002400240020000000030000C00038072
:100A00000060001C000300000000400240024002A1
:100A10007FFE0000000000000000000020004000F9
:100A20004000400020000000000100010001000122
:100A30000001000100010001000040004000200012
:100A400000000000000000000000009801240144A4
:100A50000144014400FC000410001FFC0088010454
:100A6000010400880070000000000070008801048C
:100A700001040104008800000000007000880104E7
:100A8000010411081FFC0004000000F801440144A7
:100A90000144014400C800000000010401040FFCEF
:100AA0001104110411001800000000D601290129C9
:100AB000012901C90106000010041FFC0084010087
:100AC0000100010400FC000400000104190419FCE9
:100AD0000004000400000000000000030001010108
:100AE000190119FE0000000010041FFC0024004042
:100AF00001B4010C010400000000100410041FFCEC
:100B00000004000400000000010401FC01040100D5
:100B100001FC0104010000FC010401FC008401004F
:100B20000100010400FC0004000000F801040104BD
:100B30000104010400F80000010101FF0085010427
:100B400001040088007000000000007000880104AB
:100B50000104010501FF00010104010401FC0084FE
:100B60000104010001800000000000CC01240124E8
:100B7000012401240198000000000100010007F891
:100B80000104010400000000010001F80004000459
:100B90000004010801FC0004010001800170000C48
:100BA000001001600180010001F0010C003001C063
:100BB0000030010C01F0010000000104018C007400
:100BC0000170018C01040000010101810171000E1E
:100BD000001801600180010000000184010C013453
:100BE00001440184010C000000000000000000002E
:100BF00001003EFC40024002000000000000000036
:100C0000FFFF0000000000000000400240023EFC28
:100C10000100000000000000000060008000800073
:100C20004000400020002000000000000000000004
:100C300000000000000000000000000000000000B4
:100C400000000000000000000000000000000000A4
:100C500000000000000000000000000F80380FFEC0
:100C6000380F803800000000000000000000000085
:100C70000000000000000100000600000C00003829
:100C800000003100000600000C00003800003000B9
:100C9000000000000000000061800067F807F98094
:100CA0000061800061800061800061800067F8075A
:100CB000F98000618000000000000000000001C019
:100CC000E003E0F00630080418081FFFFE040E08D9
:100CD0000787F00381E000000000000001F000063B
:100CE0000C00040408060C7001F9C0000E00003B63
:100CF000E000EC18070808040C180003E0000000EE
:100D00000001E00007F003F818041C0804170807A6
:100D1000E1D003C0E00023B0003C08002008000040
:100D2000100000000000000100003100003200004F
:100D30001C00000000000000000000000000000097
:100D400000000000000000000000000000000000A3
:100D500000000000000000007F0001FFC00780F0DD
:100D60000C00181000042000020000000000002009
:100D700000021000040C00180780F001FFC0007F83
:100D80000000000000000000000000000000000063
:100D9000000000004200006600006600003C000009
:100DA000180003FFC0001800003C00006600006649
:100DB00000004200000000000800000800000800D9
:100DC00000080000080001FFC00008000008000043
:100DD00008000008000008000000000000010000FA
:100DE0003100003200001C00000000000000000084
:100DF00000000000000000000000000000000000F3
:100E000008000008000008000008000008000008B2
:100E100000000800000800000800000800000000B2
:100E2000000000000000000038000038000038001A
:100E300000000000000000000000000000000000B2
:100E40000000000000000000000600001C00007010
:100E5000000180000E0000380000C0000700001CE8
:100E60000000300000000000000000007F8001FF53
:100E7000E00380700600180400080400080600184B
:100E800003807001FFE0007F800000000000000090
:100E9000000001000801000801000803FFF807FF37
:100EA000F800000800000800000800000000000032
:100EB00000000001C03802C0580400980401180462
:100EC0000218040418061C1803F81801E0F80000C2
:100ED0000000000000000001C0E003C0F0040008B2
:100EE00004080804080806180803F41801E7F000CD
:100EF00001E0000000000000000000000300000D01
:100F00000000110000610000810803010807FFF8DC
:100F10000FFFF800010800010800000000000000B9
:100F200000E007FCD00608080610080610080610A6
:100F300008061838060FF00607C000000000000081
:100F4000000000003F8001FFE00384300208180425
:100F50001008041008041008071810030FF0000709
:100F6000C000000000000000000003C000070000F7
:100F70000600000600F80607F806180006E000075D
:100F8000000006000000000000000001E1E003F79F
:100F9000F0063410041808041808040C08040C089F
:100FA00006161803F3F001C1E00000000000000085
:100FB000F80003FC300306380402080402080402A7
:100FC000080404100308F001FFC0007F00000000C7
:100FD0000000000000000000000000000000000011
:100FE0007038007038007038000000000000000009
:100FF00000000000000000000000000000000000F1
:1010000000000000301A00301C000000000000004A
:1010100000000000000000000000000000000008C8
:101020000000140000220000410000808001004008
:10103000020020040010080008000000000000006A
:1010400021000021000021000021000021000021DA
:10105000000021000021000021000021000000000C
:101060000000000000000800080400100200200139
:1010700000400080800041000022000014000008B1
:101080000000000000000003C00004C000040000D5
:10109000080038080F380808380810000C3000071E
:1010A000E00003C000000000000000003F8000FFDF
:1010B000E0038070020F1006708804C08804830863
:1010C000047F8802C09003012000FE400000080059
:1010D00000180001F8003E0801C20007020007E204
:1010E0000000FE00001FC80001F8000038000008E2
:1010F00004000807FFF807FFF804080804080804BC
:10110000080804080806180803F41801E7F00001AD
:10111000E0000000000000003F8001FFE00380705D
:101120000200180400080400080400080400100667
:1011300000200780C000000004000807FFF807FF38
:10114000F804000804000804000804001802001055
:1011500003807001FFE0007F8000000004000807AA
:10116000FFF807FFF8040808040808040808040842
:1011700008043E0804000806001801006000000092
:1011800004000807FFF807FFF80408080408000433
:101190000800040800043E0006000006000001806C
:1011A00000000000000000003F8001FFE0038070AD
:1011B0000600180400080402080402080203F007ED
:1011C00083F000020000020004000807FFF807FF98
:1011D000F8040808000800000800000800000800E3
:1011E00004080807FFF807FFF804000800000000E3
:1011F000000004000804000804000807FFF807FFC7
:10120000F8040008040008040008000000000000C2
:1012100000000000000600000700000104000104B7
:10122000000104000307FFFE07FFFC0400000400A8
:101230000004000004000807FFF807FFF8040C088A
:10124000001800003E0004C7800503C80600F8042B
:10125000003804001800000804000807FFF807FF22
:10126000F80400080000080000080000080000085A
:1012700000000800001800006000000004000807DB
:10128000FFF807800807FC00007FC00003F8000794
:10129000C000780007800807FFF807FFF80400087F
:1012A00004000807FFF807000803C00000E0000082
:1012B0003800001E000007000001C00400F007FF16
:1012C000F8040000000000007F8001FFE003807050
:1012D0000600180400080400080600180300300186
:1012E000FFE0007F8000000004000807FFF807FF10
:1012F000F8040408040400040400040400040400C6
:10130000060C0003F80001F00000000000000000DF
:101310007F8001FFE00380700600880400880400DD
:10132000C806003C03003E01FFE6007F8400000089
:1013300004000807FFF807FFF80408080408000481
:101340000C00040F00040BC00610F003F03801E09D
:101350000800000800000001E0F803F0300630103B
:10136000041808041808040C08040C0802061802E3
:1013700007F00781E0000000018000060000040083
:101380000004000004000807FFF807FFF804000845
:1013900004000004000006000001800004000007B3
:1013A000FFE007FFF004001800000800000800003C
:1013B0000800000800000804001007FFE004000017
:1013C00004000006000007E00007FE00041FE00024
:1013D00001F80000380001E0043E0007C0000600EC
:1013E0000004000004000007E00007FFC0041FF82D
:1013F0000007C007F80007FF80043FF80007C0049B
:10140000F8000700000400000000000400080600C7
:101410001807C07805F1C8003E00001F800463E88B
:101420000780F80600180400080000000400000609
:10143000000007800007E008047C08001FF8000790
:10144000F800180804E00807000006000004000087
:101450000000000100080600380400F80403E80456
:101460000F08047C0805F00807C0080700180400EE
:10147000600000000000000000000000000000000C
:101480000000003FFFFE200002200002200002209A
:101490000002200002000000000000000000080020
:1014A0000007000000C0000038000006000001C076
:1014B00000003000000E00000100000000000000ED
:1014C0000000200002200002200002200002200074
:1014D000023FFFFE000000000000000000000000CE
:1014E00000000000000000000008000010000030B4
:1014F0000000200000300000100000080000000084
:1015000000000000000001000001000001000001D7
:1015100000000100000100000100000100000100C6
:1015200000010000010000010000000000000000B8
:10153000002000002000001000001000000000004B
:10154000000000000000000000000000000000009B
:1015500000F00019F8001B180022080026080024DB
:1015600008002410003FF8001FF8000008000018D1
:1015700000000004000007FFF80FFFF0001818003B
:101580001008002008002008003018001FF0000F8D
:10159000C00000000000000007C0001FF00018306D
:1015A000002008002008002008003C08001C100053
:1015B00000600000000000000000000007C0001FE5
:1015C000F00038180020080020080020080410103F
:1015D00007FFF80FFFF000001000000000000000FF
:1015E00000000007C0001FF0001230002218002287
:1015F00008002208003208001E10000E2000000023
:1016000000000000200000200800200801FFF8036F
:10161000FFF8062008042008042008072000030023
:101620000000000000000000000E000E6E001FF31E
:101630000031B10020B10020B1003191001F130032
:101640002E1E00200E00300000000004000807FFDE
:10165000F80FFFF80010080020000020000020080C
:10166000003FF8001FF80000080000000000000024
:101670000000002008002008002008063FF8063F70
:10168000F80000080000080000080000000000004A
:101690000000000000000000030000030020010023
:1016A0002001002003063FFE063FFC000000000072
:1016B0000000000000000004000807FFF80FFFF81A
:1016C000000188000300002FC00038F80020380017
:1016D00020080000080000000000000000000400D6
:1016E0000804000804000807FFF80FFFF8000008CE
:1016F00000000800000800000000000000200800B2
:101700003FF8003FF8001008002000003FF8003FBD
:10171000F8001008002000003FF8003FF800000823
:10172000000000002008003FF8003FF8001008000B
:101730001000002000002008003FF8001FF8000003
:10174000080000000000000007C0000FF000183083
:101750000030080020080020080030080018300081
:101760000FF00007C0000000000000002001003F53
:10177000FF003FFF00101100200900200800200892
:10178000003038001FF0000FC00000000000000013
:1017900007C0001FF00038180020080020080020B3
:1017A00009001011001FFF003FFF000001000000B2
:1017B000002008002008002008003FF8003FF80043
:1017C0000808001008002008002000003000003049
:1017D00000000000000000000000000C78001E184F
:1017E0000033080023080021080021880021980008
:1017F00030F00038600000000000000020000020F1
:101800000000200000FFF003FFF80020080020087F
:101810000020080000300000000000000000000070
:101820002000003FF0007FF80000180000080000D2
:1018300008002010003FF8007FF0000010000000BA
:10184000000000002000003000003C00003F80004D
:1018500023F0000078000070002380003C0000307E
:1018600000002000002000003C00003FE00023F8C2
:101870000000E0002700003E00003FE00021F800EB
:1018800001E0003E000020000000000020080020D1
:1018900008003838003E680027800003C8002CF894
:1018A0000038380020180020080000000000000068
:1018B0002000003003003C01003F830023EC0000C7
:1018C00070002380003C0000200000200000000089
:1018D0000000000000000038080020380020F80058
:1018E00023E8002F88003E08003808002018000078
:1018F0007000000000000000000000000000000078
:101900000000000008000014001FF7FC3000062053
:1019100000020000000000000000000000000000C5
:1019200000000000000000000000FFFFFF000000BA
:1019300000000000000000000000000000000000A7
:1019400000002000023000061FF7FC001400000811
:101950000000000000000000000000000000000087
:10196000000000180000600000400000400000205F
:1019700000001000000800000400000400000C003B
:10198000001000002DE9FC4706464FF000083078B3
:10199000DFF83474C107C14609D5B868B16B20F0CF
:1019A000C0600843B860B06B08B94FF001083078E8
:1019B000810709D5B868F16B20F0C0500843B860C2
:1019C000F06B08B94FF00108307841070FD5BA68BD
:1019D000306B22F440120243BA60306BB0F5801FC6
:1019E00008BF4FF0010802D008B94FF00109307864
:1019F00001070FD5BA68706B22F440020243BA6047
:101A0000706BB0F5800F08BF4FF0010802D008B925
:101A10004FF001093078DFF8AC46810632D500205E
:101A20000090216CDFF8A05641F080512164206CB9
:101A300000F0805000900098296841F4807129607E
:101A400000F05EFB82462868C10500F18A8000F044
:101A500057FBA0EB0A000228F5D903205AE100F059
:101A60004FFB401B41F289318842C0F09380F4E77C
:101A7000A06820F4F810A060206F316CC1F30B0156
:101A8000084320673078C10604D596F85800DFF87F
:101A90004C1608603278100605D53969F06C21F4CF
:101AA0004001014339613178480605D53969B06C88
:101AB00021F08061014339613168C8050BD539696E
:101AC000706D21F0006101433961716DB1F1006FFA
:101AD00008BF4FF001093168880505D53969706C78
:101AE00021F08051014339613068DFF8F455410538
:101AF00009D53A69306D22F0005202433A61316DE6
:101B0000B1F1005F07D0B8F1000F04D13068B0F533
:101B1000006F40F0B7800021296000F0F1FA8046A4
:101B2000206801014AD500F0EBFAA0EB080002287A
:101B3000F6D992E700F0E4FAA0EB0A00022840F29E
:101B40009D808AE700F0DCFAA0EB0A00022840F250
:101B5000A18082E700F0D4FA401B022840F2D58031
:101B60007BE7206F10F440701EBF316C01F44071B0
:101B7000884213D0206FDFF86C1501220A60002321
:101B80000B6020F440702067206FC10706D500F07D
:101B9000B7FA0546206F81077FF561AF316C01F41C
:101BA0004070B0F5407F7FF463AFA268DFF838057E
:101BB00022F4F81201401143A1605DE73168CA07C1
:101BC00001D5B06B18B189070AD5F06B40B900F0A8
:101BD000A3F801F070610843716940EA0170386050
:101BE0003068410703D5326BB2F5801F05D000077E
:101BF00013D5716BB1F5800F0FD100F08DF83269FC
:101C000040EA026001F0E04108433860B868B16A18
:101C10004009491E41EA4010B8603068410517D5B7
:101C2000306DB0F1005F13D1386839687268B368FD
:101C300042EA8312F3685B085B1EC0F3014042EA8C
:101C40000342401C42EA406201F0E0411143396026
:101C5000306801050FD5F2687068B168520840EA33
:101C60008110521E316940EA0240726940EA016007
:101C700040EA0270386000F059F882462168080195
:101C80007FF558AFB9F1000F43D00020A86000F0F5
:101C900037FA8246206881003FF554AF31684A0721
:101CA00001D5306B18B1090715D5706B98B97868F4
:101CB000B169F26941EA821100F440300843716A67
:101CC00040EA01607860B868F16A20F4F850491E73
:101CD00040EA0120B8603068C10511D5706DB0F1DF
:101CE000006F0DD17868336AB169F2695B0841EA27
:101CF00082115B1E41EA034100F070600843786086
:101D00000120A86000F0FCF90546206881007FF5FD
:101D100021AF0020BDE8F687386839687268B3687B
:101D200042EA831200F440301043704701202860DB
:101D300000F0E6B90020086000F0E2B92DE950415A
:101D4000DFF8B043DFF8A4636068DFF8A48300F035
:101D50000C00042804D0082804D00C2815D027E053
:101D6000404626E000F027F847BFC0F38816A8FBDE
:101D70000601C0F38818A6FB080100F0C7F9216826
:101D8000C1F30141491C49000FE000F014F847BFBE
:101D9000C0F38816A8FB0601C0F38818A6FB08014B
:101DA00000F0B4F92168C1F30271B0FBF1F000E07A
:101DB0003046BDE850810023226820684102206837
:101DC00002F03F0270470000843802402DE9F843DA
:101DD0000646BC4D3078C1074AD500F077F9042893
:101DE0000DD000F073F9082802D16868410206D4CA
:101DF00000F06CF90C280BD16868410208D52868FE
:101E0000810335D57068002840F0B780012056E185
:101E10007068B0F5803F04D1286840F480302860B5
:101E200011E0B0F5A02F286806D140F4802028608A
:101E3000296841F4803105E020F480302860296869
:101E400021F480212960706868B100F059F90446D6
:101E50002868810300F1918000F052F9001B652889
:101E6000F6D303202BE100F04BF9044628688103E8
:101E700040F1838000F044F9001B6528F6D3F0E7B9
:101E800000F03EF9001B022840F2AA80E9E7F06862
:101E900070B10121396000F033F9044628688107E8
:101EA00000F1CE8000F02CF9001B0228F6D9D8E70B
:101EB000386000F025F904462968880760D500F0ED
:101EC0001FF9001B0228F7D9CBE7FFF734FF0446C0
:101ED000686F810779D500F013F9001B0228F7D944
:101EE000BFE70528286F06D140F004002867286F57
:101EF00040F0010005E0400840002867286F20F00E
:101F00000400286741F28938B06868B100F0F8F839
:101F10008146286F810700F1A08000F0F1F8A0EB66
:101F200009004045F5D39CE700F0EAF88146286FA8
:101F3000810740F1928000F0E3F8A0EB09004045F2
:101F4000F5D38EE700F0DCF8001B022840F2988001
:101F500087E700F0D5F8001B022840F2AB8080E74D
:101F600000F0B8F804462868810140F1A78000F02D
:101F7000C7F8001B0228F6D973E730785E4F810757
:101F800021D5A86810F00C0F0FD000F09FF808289A
:101F900002D16868410208D500F098F80C287FF457
:101FA00076AF686841023FF572AF2868810703D5B4
:101FB000F06801287FF42AAF2968306921F0F80120
:101FC00041EAC0012960317808070DD570694B4995
:101FD00000283FF47AAF01220A6000F091F804462D
:101FE000686F81077FF54CAF307841073AD5286C90
:101FF0000024C1000AD400940124296C41F08051CE
:102000002964286C00F0805000900098DFF8B880B8
:10201000D8F80000C1051BD4D8F8000040F4807047
:10202000C8F8000000F06CF88146D8F80000C1053F
:102030000ED400F065F8A0EB09000228F5D910E7EE
:102040002868316920F0F80040EAC1002860BAE74A
:10205000B06801287FF445AF49E71CB1286C20F037
:1020600080502864B06948B3A96801F00C010829C0
:102070003FF4CCAE02287FF473AF00F02BF8044697
:10208000286881013FF55EAFF269306A716A0243E8
:10209000B06A400842EA8112401E42EA0042F06AF9
:1020A000316B42EA006242EA01726A60012000F08C
:1020B00012F80446286881017FF54BAF0020BDE887
:1020C000F28300000038024000700040A86800F071
:1020D0000C0070470020386600F012B8E01147424B
:1020E00068004742400E4742FFFCFF0F0024F40007
:1020F00000127A000438024000004742800E474236
:1021000001484068704700BF38140020D3BBD9B1E4
:10211000B2F5803F5BD2022A1ED98C46B1FBF2F1A8
:1021200002FB11C31B0443EA1043B3FBF2FC02FBA6
:102130001C3380B240EA0343B3FBF2F002FB1032DF
:1021400040EA0C4000237047022A05D98446B0FBC0
:10215000F2F002FB10C270474AB105D100F0010253
:1021600049085FEA3000704700220023704700F002
:102170006DB80B000200002100207047F7D3002249
:1021800000237047904271EB030CF2D370B5B1FAA3
:1021900081F4B3FA83F52C1BA340C4F1200532FA75
:1021A00005F63343A2405FF00046E64002E05B08DC
:1021B0005FEA3202841A71EB030524BF20462946E8
:1021C0007641F4D302000B003000002170BD70B5E1
:1021D000B1FA81F4B2FA82F5C4F120046419B4F1C1
:1021E0002006DAD3B2405FF00044F440002502E05C
:1021F00052085FEA3303C61A71EB020E24BF304661
:10220000714664416D41F3D302000B0020002900A8
:1022100070BD30B4002513E050F8042BD30744BF41
:10222000A9F101039A18091F042942F8045BFAD2A4
:1022300013468C0744BF15809B1CC90748BF1D70FF
:1022400050F8041B0029E7D130BC704770470000EC
:102250002DE9F04100290546DFF8AC64DFF8AC74E5
:10226000DFF8AC8414BF012200222021304600F0A8
:1022700041FB00220121384600F03CFB08240022EB
:1022800000F019F828064CBF01220022802100F03E
:1022900013F8012200F00FF86D00641EEFD1012247
:1022A0000121384600F026FB3046BDE8F04101220E
:1022B000202100F01FBB2021404600F01BBB002165
:1022C0008D20C5E770B50024DFF84854A4F1500014
:1022D0000021C0B2FFF7BCFF00F02EFA0021102051
:1022E000FFF7B6FF00262819F2B210F832000121DC
:1022F000FFF7AEFF761CF0B28028F4DB641C082CDC
:10230000E4DB70BD38B50020DFF80814002500229A
:102310000B18D4B203F83450521CD3B2802BF7DB25
:10232000401C0828F3DBBDE83140CBE770B500F076
:102330000CF82143815470BD70B500F006F861EAD5
:102340000401C9B2C943815470BDDFF8C833CA085B
:1023500003EBC0008B0801EB5376F608845C012583
:10236000A1EBC60105FA01F170472DE9F84F1C46B3
:102370008346DB08B4EBC30018BF0120203A0D46AA
:1023800000EBD40160084843D2B2AA465FFA80F954
:102390000092002603E055460BF1010B761C4E45DA
:1023A00035DA0C2C06D1009ADFF86C130C2042436E
:1023B000881808E0102C08D10099DFF85C0300EBC6
:1023C000011202F27440875D0AE0182C1FD1009AB6
:1023D000DFF8441324204243881800F664218F5DFF
:1023E0004FF008083806E9B25FFA8BF002D5FFF724
:1023F0009DFF01E0FFF7A0FF6D1CE8B27F00A0EB9E
:102400000A00A042C7D0B8F10108EBD1C6E7BDE889
:10241000F18FF8B504460D4616461F460FE03B46C1
:10242000E9B2E0B2FFF7A1FF04EB57043946C1F16E
:102430008001E2B29142BCBF0024AD1C761C327810
:10244000A2F120005F28EAD3F1BD0246012000E09E
:1024500050430B46591EDBB2002BF9D170472DE9D2
:10246000F843089C0646894690461F460025BD4213
:102470001CDA781B411EC9B20A20FFF7E6FFB8FB41
:10248000F0F00A21B0FBF1F201FB12026008684390
:102490008019D1B2002923461ABF3032D2B230227D
:1024A0004946C0B2FFF761FF6D1CE0E7BDE8F1836C
:1024B0002DE9FE4F82B006469DF810008B46C008FD
:1024C0004FF000098DF80160DA468DF800009DF8A4
:1024D0000000411E00288DF8001051D09DF810001A
:1024E0009DF80C80019010FB08F84FEAA80108EB5A
:1024F000517009EBE0005FFA80F809F1010900274B
:102500002FE0FFF719FF1AE0844800EB08110DE0F7
:102510002029824804D100F50E7000EBC81105E0B7
:1025200040292DD100F5876000EB4821CD5D0824BE
:10253000E8075FFA8BF1F0B2E3D5FFF7F7FE6D081D
:10254000641E0BF1010BF3D1761C9DF80100019A7A
:10255000F1B2091A914204BF06460AF1080AD346AD
:102560007F1C01988742B2DA9DF810101029CBD059
:102570001829CDD148216A4811FB08F10144D5E75B
:1025800005B0BDE8F08F10B586B0002000905E4C1D
:102590006448016841F004010160026802F004022D
:1025A0000092002200990092036843F080030360C8
:1025B000016801F08001009100990092036843F0E6
:1025C00001030360016801F001010091009900928C
:1025D000A022036843F0020303600123006800F0B7
:1025E0000200009000994A48019200210391029351
:1025F000049301A900F0A4F8102100F095F82046FA
:1026000000F09EF8012100F08FF8404800F098F8A3
:1026100000221021204600F06DF9C82000F08AF950
:1026200001221021204600F065F90021AE20FFF7BD
:102630000FFE00F081F800211020FFF709FE0021B5
:102640004020FFF705FE00218120FFF701FE002159
:10265000CF20FFF7FDFD0021A020FFF7F9FD0021AD
:10266000C020FFF7F5FD0021A620FFF7F1FD0021B6
:10267000A820FFF7EDFD00213F20FFF7E9FD002135
:10268000D320FFF7E5FD00F057F80021D520FFF734
:10269000DFFD00218020FFF7DBFD0021D920FFF7BF
:1026A000D7FD0021F120FFF7D3FD0021DA20FFF74D
:1026B000CFFD00211220FFF7CBFD0021DB20FFF72B
:1026C000C7FD00214020FFF7C3FD00212020FFF7B8
:1026D000BFFD00210220FFF7BBFDFFF7F0FD002149
:1026E0001420FFF7B5FD0021A420FFF7B1FD002164
:1026F000A620FFF7ADFD0021AF20FFF7A9FDFFF7F2
:1027000001FE06B010BD00000008024000040240B7
:102710000000024048140020C4010008000000200E
:102720006001002030380240019101220021039114
:102730000292049201A970470021002088E5000060
:102740002DE9F84F0D464FF0000870490F22012384
:1027500004462E6803FA08F000EA0609814540F0B5
:10276000BB804FEA480C032606FA0CF66FEA060E09
:102770006E68012E18BF022E03D0112E18BF122E24
:1027800011D1A668EF680EEA060607FA0CF73E4379
:10279000A660666826EA00006E68C6F3001606FAB0
:1027A00008F630436060E068AE680EEA000006FAA2
:1027B0000CF63043E0604FEA88006E68022E18BFC6
:1027C000122E12D14FEAD80604EB860600F01C0741
:1027D000D6F820A002FA07FB2AEA0B0AD5F810B0B7
:1027E0000BFA07F747EA0A07376226680EEA060778
:1027F0002E7906F0030606FA0CF63E4326606E6854
:10280000F60069D5002600964FEA980C0E68DFF8AE
:1028100000E146F480460E6000F00C000E6806F4FD
:1028200080460096009E5EF82C7002FA00F627EAB9
:102830000606384FBC4208BF00271DD0364FBC42A9
:1028400008BF012718D0354FBC4208BF022713D05C
:10285000334FBC4208BF03270ED0324FBC4208BFE3
:10286000042709D0304FBC4208BF052704D02F4FA2
:10287000BC420CBF0627072707FA00F030434EF88A
:102880002C006FEA090C2A4806680CEA060E6E68EE
:10289000F70348BF49EA0E0EC0F800E046680CEAAC
:1028A000060E6E68B70348BF49EA0E0EC0F804E092
:1028B00086680CEA060E6E68F70248BF49EA0E0EFB
:1028C000C0F808E0C6680CEA060E6E68B60248BF9B
:1028D00049EA0E0EC0F80CE008F10108B8F10F0F3C
:1028E0007FF637AFBDE8F18F0069084018BF0120BF
:1028F000C0B2704702B909048161704742690A4059
:102900008A4208BF090481617047000044380240D0
:102910000838014000000240000402400008024064
:10292000000C024000100240001402400018024057
:10293000003C014038B50446FFF7E2FB14F1010FFB
:10294000054602D0044801786418FFF7D9FB401B04
:10295000A042FAD331BD00BF3814002010B500F0FA
:10296000BBF900F048F900F0D1F900F051FAFFF797
:102970000AFED04C00F0C0F84FF4004100F0B9F866
:102980000028F7D100F007F84FF4806100F0B1F8AB
:102990000028F7D1EEE770B500F02AF9FFF7B2FC96
:1029A0001023002200210020FFF782FD10230122C6
:1029B00000211220FFF77CFD1023022212210020AB
:1029C000FFF776FD1023032212211220FFF770FD7E
:1029D000FFF778FCB74C00F08AF8002835D14FF4A7
:1029E00080712046FFF78AFF00F07BF800F06CF85A
:1029F0000125002625E000F067F8761C1E2E20D168
:102A0000022D1EDA00F0F4F81023082200215C20C9
:102A1000FFF74EFD00F05FF8FFF754FC01224FF482
:102A2000807100F061F800F052F800224FF48071DC
:102A300000F05AF800F04BF800F059F80028E1D106
:102A4000022500F054F80028D5D04FF4804100F062
:102A500050F8002837D14FF400712046FFF74EFFA1
:102A600001224FF4807100F03FF800F02DF80125AD
:102A7000002622E000F028F8761C1E2E1DD1022D23
:102A80001BDA00F0B5F81023072200215C20FFF7C5
:102A90000FFD00F020F8FFF715FC00F022F800F021
:102AA00016F8002200F01EF800F011F84FF48041F3
:102AB00000F01FF80028E4D102254FF4804100F017
:102AC00018F80028D6D070BD6420FFF733BF4FF44C
:102AD000FA70FFF72FBF1023092200216C20FFF7A7
:102AE000E7BC01224FF400712046FFF703BF4FF40B
:102AF00000512046FFF7F8BE18B587B06E4C002293
:102B000002A9204600F090FA002201A9204600F018
:102B1000FDFA00F06DF8FFF7F5FB1023002200210D
:102B20000020FFF7C5FC1023012200211220FFF72F
:102B3000BFFC1023022200212420FFF7B9FC102340
:102B4000032200213620FFF7B3FC102304220021CA
:102B50004820FFF7ADFC1023052200215A20FFF783
:102B6000A7FC1023062200216C20FFF7A1FC1023F4
:102B700056A210210820FFF74CFC102000900423DF
:102B80009DF8072002F5FA6220211420FFF767FC68
:102B900000F02AF89DF8052020213720FFF75FFC80
:102BA00000F022F89DF8062020214B20FFF757FC6B
:102BB00000F01AF89DF8082030211420FFF74FFC90
:102BC00000F012F89DF8092030212820FFF747FC7B
:102BD00000F00AF89DF80A2030213C20FFF73FFC66
:102BE000FFF770FB08B010BD102000900223704763
:102BF0003220FFF79FBE10B5AAB0304C06A8214680
:102C0000342200F015FB01A8142100F01DFB13A8CD
:102C100004F134015C2200F00BFB002000902848F6
:102C2000016841F0805101600021006800F080508F
:102C300000900098234800910921026842F4404224
:102C400002604FF48032006800F440400090009829
:102C50000691079200210891012202210B920C910A
:102C60004FF4800204210D920E91B42202210F92A2
:102C700010911191129106A8FFF7A8F800F0E8FA58
:102C800002210291002203920F204FF4A0510190E3
:102C900004914FF480520592052101A800F014FB25
:102CA00020214FF400721391239213A8FEF76AFEBD
:102CB0002AB010BD00040240C818002010360008D9
:102CC0004038024000700040704700004C49414FBE
:102CD00057414E594959490080B50B48016841F4A4
:102CE00000710160026842F480620260016841F490
:102CF00080710160032000F084FB002000F0CAFB1B
:102D000000F0E8FB002002BD003C0240F8B586B0B0
:102D10006846142100F098FA00243548354F364EA5
:102D2000059440F201350168344C41F080010160A6
:102D3000026802F08002059200220599059203685C
:102D400043F001030360016801F001010591059959
:102D50000592036843F004030360016801F0040175
:102D6000059105990592A021036843F002030360D1
:102D7000006800F00200059005983846FFF7BAFD9C
:102D8000002230212046FFF7B5FD002229463046BB
:102D9000FFF7B0FDA02100F033F83846FFF7D0FC74
:102DA000302100F02DF82046FFF7CAFC01200190E9
:102DB000002202920392009569463046FFF7C0FC5C
:102DC0004FF4744000210090019102913046694611
:102DD000FFF7B6FC01224FF480713046FFF78AFD01
:102DE00001224FF400713046FFF784FD07B0F0BDBB
:102DF0003038024000000240000402400008024057
:102E000000910122002102910391019269467047CD
:102E100038B586B001A8142100F016FADFF89C102E
:102E200029A42568264C009521607F200022A060FF
:102E3000FF216260E16022616261A261204600F0D0
:102E400045F808B1FFF740FF30218DF805108DF8E7
:102E50000610182000218DF804000491059101222C
:102E600001A9204600F07FF808B1FFF72DFF0121EE
:102E700008228DF800108DF80120312120228DF8D4
:102E800002108DF8032069460122204600F0EAF87E
:102E900008B1FFF719FF00220021204600F036FBA1
:102EA00008B1FFF711FF07B030BD00680349884241
:102EB00002D104480122026070470000002800404F
:102EC000C81800203C0E47420000000070B5040006
:102ED00031D0607F20B9002121772046FFF7E5FF40
:102EE00000F03BF853202168486200F09BF8FF2572
:102EF000E8B92168DFF8AC028A6802408A6022687B
:102F000093686668216960690E43064333439360A2
:102F10002068E168016120680169A26841EA024114
:102F2000016100F074F808D400F07AF828B1206844
:102F3000456204216177012070BD2068016C21F495
:102F40008021016421680A6CA06902430A6401209F
:102F500021684D626077002070BD02206077CA2131
:102F6000226851627047F8B504460D46207F01285B
:102F700001D10220F2BD00F0BCF82068806815D1B4
:102F800041065CBF0020E870287800F045F906464D
:102F9000687800F041F90702A87800F03DF947EAA7
:102FA00006470743E87847EA00470DE041065CBF63
:102FB0000020E8706F782978A8783F0247EA014737
:102FC000E978074347EA01472168CA20486253224B
:102FD0002068426200F026F8FF26B0B92168DFF8C9
:102FE000C80107400F602068826822F48022826056
:102FF00021688A68EB68286903431A438A6000F0F5
:1030000006F803D400F00CF800B178E06AE020681C
:10301000C16821F08001C16020688168880670471E
:103020002046C5E02046DCE030B50068836A4B608E
:103030000469C4F30E048C600368DFF86C0103407C
:10304000180C00F03F040C701D0A00F040004D7099
:103050008B70C87022B900F091F812FB03028A70DD
:10306000002030BDF8B504460E46207F012801D16E
:103070000220F2BD00F03DF875782CD1E80603D5AA
:1030800005F0EF050A357570F07800F0C5F80746D1
:10309000707800F0C1F80502B07800F0BDF845EA9C
:1030A00007450543307845EA40352068CA2141622A
:1030B000532221684A62FFF7B5FFFF2650B9216805
:1030C000DFF8E80005404D60FFF7A1FF0AD4FFF7E5
:1030D000A7FF38B113E0F078317800F043F845EA03
:1030E0004135E2E7206846620121617700202077C0
:1030F000F2BD0120207702216177002A7047206805
:103100004662042100F02AF80120F2BD30B50368C0
:10311000DFF898005B6803408B701D0A1C0C05F0FB
:103120001F055B0BCC704D7003F007030B7092B959
:10313000C87803090A2200F00F0012FB0300C870D0
:103140004878030900F00F0012FB030048708878EC
:1031500000F00EF88A70002030BD03216177002056
:10316000207770472D0245EA0045B0780543704747
:10317000030900F00F0012FB0302704708780309EF
:103180000A2200F00F0012FB0300087048780309C0
:1031900000F00F0012FB030048708878030900F06C
:1031A0000F007047BFFF8FFF7F7F7F003FFFFF0053
:1031B00038B504462068C16821F0A001C160FEF75F
:1031C0009FFF05462068C168880608D4FEF798FF6F
:1031D000401B40F2E9318842F4D3032032BD002085
:1031E00032BD38B504462068C1684A0612D44FF093
:1031F000FF31C160FEF784FF05462068C1684806BC
:1032000008D4FEF77DFF401B40F2E9318842F4D339
:10321000032032BD002032BD002101E0491C0A38E4
:10322000C2B20A2AFAD240EA0110C0B270470000C6
:103230004AB1000011F8013B521E00F8013B1CBFCF
:1032400011F8013BF8E77047002200F0C7B9000011
:10325000F8B500F027F8012100F01EF83160FEF704
:103260004FFF07462868C1030CD4FEF749FFC01B77
:10327000A042F7D30320F2BDFEF742FF801BA0421D
:1032800005D3F7E701207060FEF73AFF064628688D
:103290008103F1D50020F2BD006800F0805000905D
:1032A000009870470020009040F2E9340448054E31
:1032B0000168024D41F08051016070470470004088
:1032C0004038024040000E422DE9F04104000F4614
:1032D00078D0404E306800F00F00B84202D200F0C3
:1032E00073F86FD120683C4D810712D5400703D594
:1032F000A96841F4E051A9602078010703D5A868C6
:1033000040F46040A860A968A06821F0F001014382
:10331000A9602178C8074DD56068012802D12968C5
:103320008A0305E0022818BF032803D129688A010F
:1033300003D447E029688A0744D5A968890840EA88
:103340008100A860FEF7DCFE8046A868616800F096
:103350000C00B0EB810F2DD0FEF7D2FEA0EB0800E1
:1033600041F289318842F0D3032021E020784107DF
:1033700005D5AA68E06822F4E0520243AA602178E9
:10338000080706D5A968206921F4604141EAC00117
:10339000A960FEF7D3FCAA681049114BC2F30312CF
:1033A000895CC84018600F48006800F073F800207E
:1033B000BDE8F081306800F00F008742D6D200F0FF
:1033C00003F8D3D00120F3E73770316801F00F0123
:1033D000B9427047003C024000380240F436000811
:1033E00044140020401400200901020002D42448A3
:1033F00081547047234B02F00F021A4402F8041C58
:103400007047214B19684FF6FF020002114000F48B
:10341000E06008431D4908431860704738B51A4BEF
:103420001C68C4F30223C3F10704052C28BF04243D
:103430001D1D072D34BF0023DB1E012505FA04F4F2
:10344000641E2140994005FA03F35B1E1A401143A4
:10345000BDE83440C8E710B5401EB0F1807F01D30D
:10346000012010BD0A4C60600F214FF0FF30FFF7C4
:10347000BBFF0021A16007202060002010BD0000DC
:1034800000E400E018ED00E00CED00E00000FA05BB
:1034900010E000E038B50D4D0D4B2A7804464FF48E
:1034A0007A711868B1FBF2F2B0FBF2F0FFF7D3FFCC
:1034B00050B9102C08D2002221464FF0FF30FFF700
:1034C000ADFFAC60002032BD012032BD38140020B9
:1034D0004414002081B00020009000220A48416876
:1034E00041F480414160416801F4804100910099BC
:1034F0000092036843F080530360006800F080503E
:103500000090009801B07047403802402DE9F84320
:1035100004468846207F0128154608BF02203BD07C
:1035200000F048F8FF2620688168480540F2E93934
:1035300017D5FEF7E5FD07462068C168480710D596
:10354000FEF7DEFDC01B4845F6D32068466200F05A
:103550003FF8032020E0FEF7D3FDC01B484505D30C
:10356000F3E700F021F8FEF7CBFD07462068C168BD
:103570004A07F0D58168C908C90081602068816860
:103580000D4385602068C0F81480206800F006F8BC
:103590002068466200F01DF8BDE8F283816841F4BE
:1035A00080618160012170472068816821F4806119
:1035B000816070470120207702216177CA2022684C
:1035C000506253212068416270472268FF20506298
:1035D00003216177002020777047000000B500BF0D
:1035E000130096469446103928BFA0E80C50FAD82C
:1035F0005FEA417C28BF0CC048BF40F8042BC907D4
:1036000028BF20F8022B48BF00F8012B00BD0000A6
:1036100000000000000000000000000000000000AA
:10362000000000000000000000000000000000009A
:10363000000000000000000000000000000000008A
:10364000000000000000000000000000000000007A
:10365000000000000000000000000000000000006A
:10366000000000000000000000000000000000005A
:10367000000000000000000000000000000000004A
:10368000000000000000000000000000000000003A
:10369000000000000000000000000000000000002A
:1036A00030B5016884684218416802EB5103C907CC
:1036B0000BD54C4409E012F9011B12F8015B0029FB
:1036C00004F8015B05D5491CF9D19A42F3D10C30BD
:1036D00030BD491EF1D5F8E70448054A016841F4B8
:1036E000700101604FF000601060704788ED00E0ED
:1036F00008ED00E0000000000000000001020304EB
:103700000607080910B5074979441831064C7C446E
:10371000163404E00A68081D114488470146A14296
:10372000F8D110BD2C000000480000004EF6885172
:10373000CEF20001086840F470000860BFF34F8FBC
:10374000BFF36F8F4FF00070E1EE100A704700007A
:10375000C3EAFFFFA004000048140020000000009E
:1037600041FFFFFFEC010000EE030000000000201D
:1037700000F00DF8002801D0FFF7C4FFAFF3008080
:103780000020AFF30080FFF7E9F800F002F8012015
:10379000704700F001B800000746384600F002F814
:1037A000FBE7000080B5AFF30080024A110018204B
:1037B000ABBEFBE7260002007047FEE7FEE7FEE730
:1037C000FEE770477047704700F000B80248416854
:1037D00002788A18426070473814002001488047F8
:1037E00001480047D9360008ED370008AFF30080E4
:1037F000FFF79CFFFFF7BCFFFFF7FEBFFFF7FEBF21
:10380000FFF7FEBFFFF7FEBFFFF7FEBFFFF7FEBFEC
:10381000FFF7FEBFFFF7FEBFFFF7FEBFFFF7FEBFDC
:10382000FFF7FEBFFFF7FEBFFFF7FEBFFFF7FEBFCC
:10383000FFF7FEBFFFF7FEBFFFF7FEBFFFF7FEBFBC
:10384000FFF7FEBFFFF7FEBFFFF7FEBFFFF7FEBFAC
:10385000FFF7FEBFFFF7FEBFFFF7FEBFFFF7FEBF9C
:10386000FFF7FEBFFFF7FEBFFFF7FEBFFFF7FEBF8C
:10387000FFF7FEBFFFF7FEBFFFF7FEBFFFF7FEBF7C
:10388000FFF7FEBFFFF7FEBFFFF7FEBFFFF7FEBF6C
:10389000FFF7FEBFFFF7FEBFFFF7FEBFFFF7FEBF5C
:1038A000FFF7FEBFFFF7FEBFFFF7FEBFFFF7FEBF4C
:1038B000FFF7FEBFFFF7FEBFFFF7FEBFFFF7FEBF3C
:1038C000FFF7FEBFFFF7FEBFFFF7FEBFFFF7FEBF2C
:1038D000FFF7FEBFFFF7FEBFFFF7FEBFFFF7FEBF1C
:1038E000FFF7FEBFFFF7FEBFFFF7FEBFFFF7FEBF0C
:1038F000FFF7FEBFFFF7FEBFFFF7FEBFFFF7FEBFFC
:10390000FFF7FEBFFFF7FEBFFFF7FEBFFFF7FEBFEB
:10391000FFF7FEBFFFF7FEBFFFF7FEBFFFF7FEBFDB
:10392000FFF7FEBFFFF7FEBFFFF7FEBFFFF7FEBFCB
:10393000FFF7FEBFFFF7FEBFFFF7FEBFFFF7FEBFBB
:10394000FFF7FEBFFFF7FEBFFFF7FEBFFFF7FEBFAB
:10395000020000F0FC1000FFFC1000F0FB00000F64
:10396000FC0400FFFC04000FFD00FD40005FFD555E
:103970000075FD55005FFD4008000040200F09491B
:103980008979FD09020F2040FD000CFE02424ACA5F
:103990004A4ACA4A4A4202FEFD000CFF40504C43CC
:1039A00040404F50505C40FFFC0000F8FC8800FF96
:1039B000FC8800F8FB00001FFC08007FFC88049FC7
:1039C00080F00080FA8207E2A2928A86828080FAE2
:1039D000000240807FF8000B2424A4FEA3220022D2
:1039E000CC0000FFFC0005080601FF0001FB0400FD
:1039F000FFFD020000FD1003FF109008FD8800FF8E
:103A0000FD881808000444827F01808040432C1008
:103A100028468180002030AC63201800FD0400FCA3
:103A2000FD04040000226722FD12FC40007FFC40E0
:103A300007002030AC63300080FB921BFE808000CA
:103A4000226722121200221448847F0408142200E4
:103A500000F80102000202F2FB0200FEFD000CFF72
:103A600000000804030001020C40807FDB0000C05E
:103A7000F98001FC84FA80FEC0CA0001FF7FFA4091
:103A800000FFF94001FF7FC200017F70B60001FC1A
:103A9000F88D0001FFFEF702FEFFF70201FF039819
:103AA00000FE1FF704FEFFF704001F8C00017F3F9C
:103AB0008100F30005F8F8F0F070208100810081AA
:103AC0000098000080EC00FCFFED00FE808100818A
:103AD000008100AA0002FFFFFEEF06FCFFEE06FCDD
:103AE000FF010702810081008100AD00FDFFEF00B2
:103AF000FCFFEE00FCFF810081008100AB00FDFFB8
:103B0000EF18FCFFEE18FCFF810081008100AC0083
:103B100002020101EE00FCFFEE00FE0181008100C7
:103B200081009500FCFF8100810081008100031F5E
:103B30001F0F0F8100810081009E000001F900002D
:073B400010FC000224F40058
:04000005080037EDCB
:00000001FF
